{
	"src/EIP712.sol": {
		"EIP712": {
			"abi": [
				{
					"inputs": [],
					"stateMutability": "nonpayable",
					"type": "constructor"
				},
				{
					"inputs": [],
					"name": "DOMAIN_SEPARATOR",
					"outputs": [
						{
							"internalType": "bytes32",
							"name": "",
							"type": "bytes32"
						}
					],
					"stateMutability": "view",
					"type": "function"
				}
			],
			"devdoc": {
				"details": "Maintains cross-chain replay protection in the event of a forkReference: https://github.com/OpenZeppelin/openzeppelin-contracts/blob/master/contracts/utils/cryptography/EIP712.sol",
				"kind": "dev",
				"methods": {
					"DOMAIN_SEPARATOR()": {
						"details": "Uses cached version if chainid and address are unchanged from construction."
					}
				},
				"version": 1
			},
			"evm": {
				"assembly": "    /* \"src/EIP712.sol\":412:2023  contract EIP712 is IEIP712 {... */\n  mstore(0x40, 0xc0)\n    /* \"src/EIP712.sol\":951:1101  constructor() {... */\n  callvalue\n  dup1\n  iszero\n  tag_1\n  jumpi\n  0x00\n  dup1\n  revert\ntag_1:\n  pop\n    /* \"src/EIP712.sol\":995:1008  block.chainid */\n  chainid\n    /* \"src/EIP712.sol\":976:1008  _CACHED_CHAIN_ID = block.chainid */\n  0xa0\n  dup2\n  dup2\n  mstore\n    /* \"src/EIP712.sol\":1722:1782  abi.encode(typeHash, nameHash, block.chainid, address(this)) */\n  0x40\n  dup1\n  mload\n    /* \"src/EIP712.sol\":862:942  keccak256(\"EIP712Domain(string name,uint256 chainId,address verifyingContract)\") */\n  0x8cad95687ba82c2ce50e74f7b754645e5117c3a5bec8151c0726d5857980a866\n    /* \"src/EIP712.sol\":1722:1782  abi.encode(typeHash, nameHash, block.chainid, address(this)) */\n  0x20\n  dup1\n  dup4\n  add\n    /* \"#utility.yul\":245:270   */\n  swap2\n  swap1\n  swap2\n  mstore\n    /* \"src/EIP712.sol\":788:808  keccak256(\"Permit2\") */\n  0x9ac997416e8ff9d2ff6bebeb7149f65cdae5e32e2b90440b566bb3044041d36a\n    /* \"#utility.yul\":286:304   */\n  dup3\n  dup5\n  add\n    /* \"#utility.yul\":279:313   */\n  mstore\n    /* \"#utility.yul\":329:347   */\n  0x60\n  dup3\n  add\n    /* \"#utility.yul\":322:356   */\n  swap5\n  swap1\n  swap5\n  mstore\n    /* \"src/EIP712.sol\":1776:1780  this */\n  address\n    /* \"#utility.yul\":372:390   */\n  0x80\n  dup1\n  dup4\n  add\n    /* \"#utility.yul\":365:425   */\n  swap2\n  swap1\n  swap2\n  mstore\n    /* \"src/EIP712.sol\":1722:1782  abi.encode(typeHash, nameHash, block.chainid, address(this)) */\n  dup3\n  mload\n  dup1\n  dup4\n  sub\n  swap1\n  swap2\n  add\n  dup2\n  mstore\n    /* \"#utility.yul\":217:236   */\n  swap3\n  add\n    /* \"src/EIP712.sol\":1722:1782  abi.encode(typeHash, nameHash, block.chainid, address(this)) */\n  swap1\n  mstore\n    /* \"src/EIP712.sol\":1712:1783  keccak256(abi.encode(typeHash, nameHash, block.chainid, address(this))) */\n  dup1\n  mload\n  swap2\n  add\n  keccak256\n    /* \"src/EIP712.sol\":1019:1093  _CACHED_DOMAIN_SEPARATOR = _buildDomainSeparator(_TYPE_HASH, _HASHED_NAME) */\n  0x80\n  mstore\n    /* \"src/EIP712.sol\":412:2023  contract EIP712 is IEIP712 {... */\n  mload(0x80)\n  mload(0xa0)\n  codecopy(0x00, dataOffset(sub_0), dataSize(sub_0))\n  0x00\n  assignImmutable(\"0x8fef2229291b68be841adf029e58b87f39ba144b2d3b0af1760243d0a9bc6a1c\")\n  0x00\n  assignImmutable(\"0x277ab82e5a4641341820a4a2933a62c1de997e42e92548657ae21b3728d580fe\")\n  return(0x00, dataSize(sub_0))\nstop\n\nsub_0: assembly {\n        /* \"src/EIP712.sol\":412:2023  contract EIP712 is IEIP712 {... */\n      mstore(0x40, 0x80)\n      callvalue\n      dup1\n      iszero\n      tag_1\n      jumpi\n      0x00\n      dup1\n      revert\n    tag_1:\n      pop\n      jumpi(tag_2, lt(calldatasize, 0x04))\n      shr(0xe0, calldataload(0x00))\n      dup1\n      0x3644e515\n      eq\n      tag_3\n      jumpi\n    tag_2:\n      0x00\n      dup1\n      revert\n        /* \"src/EIP712.sol\":1268:1497  function DOMAIN_SEPARATOR() public view override returns (bytes32) {... */\n    tag_3:\n      tag_4\n      tag_5\n      jump\t// in\n    tag_4:\n      mload(0x40)\n        /* \"#utility.yul\":160:185   */\n      swap1\n      dup2\n      mstore\n        /* \"#utility.yul\":148:150   */\n      0x20\n        /* \"#utility.yul\":133:151   */\n      add\n        /* \"src/EIP712.sol\":1268:1497  function DOMAIN_SEPARATOR() public view override returns (bytes32) {... */\n      mload(0x40)\n      dup1\n      swap2\n      sub\n      swap1\n      return\n    tag_5:\n        /* \"src/EIP712.sol\":1326:1333  bytes32 */\n      0x00\n        /* \"src/EIP712.sol\":1370:1386  _CACHED_CHAIN_ID */\n      immutable(\"0x8fef2229291b68be841adf029e58b87f39ba144b2d3b0af1760243d0a9bc6a1c\")\n        /* \"src/EIP712.sol\":1353:1366  block.chainid */\n      chainid\n        /* \"src/EIP712.sol\":1353:1386  block.chainid == _CACHED_CHAIN_ID */\n      eq\n        /* \"src/EIP712.sol\":1353:1489  block.chainid == _CACHED_CHAIN_ID... */\n      tag_9\n      jumpi\n      pop\n        /* \"src/EIP712.sol\":1722:1782  abi.encode(typeHash, nameHash, block.chainid, address(this)) */\n      0x40\n      dup1\n      mload\n        /* \"src/EIP712.sol\":862:942  keccak256(\"EIP712Domain(string name,uint256 chainId,address verifyingContract)\") */\n      0x8cad95687ba82c2ce50e74f7b754645e5117c3a5bec8151c0726d5857980a866\n        /* \"src/EIP712.sol\":1722:1782  abi.encode(typeHash, nameHash, block.chainid, address(this)) */\n      0x20\n      dup1\n      dup4\n      add\n        /* \"#utility.yul\":427:452   */\n      swap2\n      swap1\n      swap2\n      mstore\n        /* \"src/EIP712.sol\":788:808  keccak256(\"Permit2\") */\n      0x9ac997416e8ff9d2ff6bebeb7149f65cdae5e32e2b90440b566bb3044041d36a\n        /* \"#utility.yul\":468:486   */\n      dup3\n      dup5\n      add\n        /* \"#utility.yul\":461:495   */\n      mstore\n        /* \"src/EIP712.sol\":1753:1766  block.chainid */\n      chainid\n        /* \"#utility.yul\":511:529   */\n      0x60\n      dup4\n      add\n        /* \"#utility.yul\":504:538   */\n      mstore\n        /* \"src/EIP712.sol\":1776:1780  this */\n      address\n        /* \"#utility.yul\":554:572   */\n      0x80\n      dup1\n      dup5\n      add\n        /* \"#utility.yul\":547:630   */\n      swap2\n      swap1\n      swap2\n      mstore\n        /* \"src/EIP712.sol\":1722:1782  abi.encode(typeHash, nameHash, block.chainid, address(this)) */\n      dup4\n      mload\n      dup1\n      dup5\n      sub\n      swap1\n      swap2\n      add\n      dup2\n      mstore\n        /* \"#utility.yul\":399:418   */\n      0xa0\n      swap1\n      swap3\n      add\n        /* \"src/EIP712.sol\":1722:1782  abi.encode(typeHash, nameHash, block.chainid, address(this)) */\n      swap1\n      swap3\n      mstore\n        /* \"src/EIP712.sol\":1712:1783  keccak256(abi.encode(typeHash, nameHash, block.chainid, address(this))) */\n      dup1\n      mload\n      swap2\n      add\n      keccak256\n      swap1\n        /* \"src/EIP712.sol\":1268:1497  function DOMAIN_SEPARATOR() public view override returns (bytes32) {... */\n      jump\t// out\n        /* \"src/EIP712.sol\":1353:1489  block.chainid == _CACHED_CHAIN_ID... */\n    tag_9:\n      pop\n        /* \"src/EIP712.sol\":1402:1426  _CACHED_DOMAIN_SEPARATOR */\n      immutable(\"0x277ab82e5a4641341820a4a2933a62c1de997e42e92548657ae21b3728d580fe\")\n      swap1\n        /* \"src/EIP712.sol\":1268:1497  function DOMAIN_SEPARATOR() public view override returns (bytes32) {... */\n      jump\t// out\n\n    auxdata: 0xa2646970667358221220f3be9c5d0c7a8cc3d783ebafc456f11f0083a739e3cc452b2b1e1c6a1546475a64736f6c63430008120033\n}\n",
				"bytecode": {
					"linkReferences": {},
					"object": "60c060405234801561001057600080fd5b504660a0818152604080517f8cad95687ba82c2ce50e74f7b754645e5117c3a5bec8151c0726d5857980a8666020808301919091527f9ac997416e8ff9d2ff6bebeb7149f65cdae5e32e2b90440b566bb3044041d36a828401526060820194909452306080808301919091528251808303909101815292019052805191012060805260805160a05161014c6100b56000396000604e0152600060f4015261014c6000f3fe608060405234801561001057600080fd5b506004361061002b5760003560e01c80633644e51514610030575b600080fd5b61003861004a565b60405190815260200160405180910390f35b60007f000000000000000000000000000000000000000000000000000000000000000046146100f15750604080517f8cad95687ba82c2ce50e74f7b754645e5117c3a5bec8151c0726d5857980a8666020808301919091527f9ac997416e8ff9d2ff6bebeb7149f65cdae5e32e2b90440b566bb3044041d36a82840152466060830152306080808401919091528351808403909101815260a0909201909252805191012090565b507f00000000000000000000000000000000000000000000000000000000000000009056fea2646970667358221220f3be9c5d0c7a8cc3d783ebafc456f11f0083a739e3cc452b2b1e1c6a1546475a64736f6c63430008120033",
					"opcodes": "PUSH1 0xC0 PUSH1 0x40 MSTORE CALLVALUE DUP1 ISZERO PUSH2 0x10 JUMPI PUSH1 0x0 DUP1 REVERT JUMPDEST POP CHAINID PUSH1 0xA0 DUP2 DUP2 MSTORE PUSH1 0x40 DUP1 MLOAD PUSH32 0x8CAD95687BA82C2CE50E74F7B754645E5117C3A5BEC8151C0726D5857980A866 PUSH1 0x20 DUP1 DUP4 ADD SWAP2 SWAP1 SWAP2 MSTORE PUSH32 0x9AC997416E8FF9D2FF6BEBEB7149F65CDAE5E32E2B90440B566BB3044041D36A DUP3 DUP5 ADD MSTORE PUSH1 0x60 DUP3 ADD SWAP5 SWAP1 SWAP5 MSTORE ADDRESS PUSH1 0x80 DUP1 DUP4 ADD SWAP2 SWAP1 SWAP2 MSTORE DUP3 MLOAD DUP1 DUP4 SUB SWAP1 SWAP2 ADD DUP2 MSTORE SWAP3 ADD SWAP1 MSTORE DUP1 MLOAD SWAP2 ADD KECCAK256 PUSH1 0x80 MSTORE PUSH1 0x80 MLOAD PUSH1 0xA0 MLOAD PUSH2 0x14C PUSH2 0xB5 PUSH1 0x0 CODECOPY PUSH1 0x0 PUSH1 0x4E ADD MSTORE PUSH1 0x0 PUSH1 0xF4 ADD MSTORE PUSH2 0x14C PUSH1 0x0 RETURN INVALID PUSH1 0x80 PUSH1 0x40 MSTORE CALLVALUE DUP1 ISZERO PUSH2 0x10 JUMPI PUSH1 0x0 DUP1 REVERT JUMPDEST POP PUSH1 0x4 CALLDATASIZE LT PUSH2 0x2B JUMPI PUSH1 0x0 CALLDATALOAD PUSH1 0xE0 SHR DUP1 PUSH4 0x3644E515 EQ PUSH2 0x30 JUMPI JUMPDEST PUSH1 0x0 DUP1 REVERT JUMPDEST PUSH2 0x38 PUSH2 0x4A JUMP JUMPDEST PUSH1 0x40 MLOAD SWAP1 DUP2 MSTORE PUSH1 0x20 ADD PUSH1 0x40 MLOAD DUP1 SWAP2 SUB SWAP1 RETURN JUMPDEST PUSH1 0x0 PUSH32 0x0 CHAINID EQ PUSH2 0xF1 JUMPI POP PUSH1 0x40 DUP1 MLOAD PUSH32 0x8CAD95687BA82C2CE50E74F7B754645E5117C3A5BEC8151C0726D5857980A866 PUSH1 0x20 DUP1 DUP4 ADD SWAP2 SWAP1 SWAP2 MSTORE PUSH32 0x9AC997416E8FF9D2FF6BEBEB7149F65CDAE5E32E2B90440B566BB3044041D36A DUP3 DUP5 ADD MSTORE CHAINID PUSH1 0x60 DUP4 ADD MSTORE ADDRESS PUSH1 0x80 DUP1 DUP5 ADD SWAP2 SWAP1 SWAP2 MSTORE DUP4 MLOAD DUP1 DUP5 SUB SWAP1 SWAP2 ADD DUP2 MSTORE PUSH1 0xA0 SWAP1 SWAP3 ADD SWAP1 SWAP3 MSTORE DUP1 MLOAD SWAP2 ADD KECCAK256 SWAP1 JUMP JUMPDEST POP PUSH32 0x0 SWAP1 JUMP INVALID LOG2 PUSH5 0x6970667358 0x22 SLT KECCAK256 RETURN 0xBE SWAP13 0x5D 0xC PUSH27 0x8CC3D783EBAFC456F11F0083A739E3CC452B2B1E1C6A1546475A64 PUSH20 0x6F6C634300081200330000000000000000000000 "
				},
				"gasEstimates": {
					"creation": {
						"codeDepositCost": "66400",
						"executionCost": "infinite",
						"totalCost": "infinite"
					},
					"external": {
						"DOMAIN_SEPARATOR()": "infinite"
					},
					"internal": {
						"_buildDomainSeparator(bytes32,bytes32)": "infinite",
						"_hashTypedData(bytes32)": "infinite"
					}
				},
				"methodIdentifiers": {
					"DOMAIN_SEPARATOR()": "3644e515"
				}
			},
			"storageLayout": {
				"storage": [],
				"types": null
			},
			"userdoc": {
				"kind": "user",
				"methods": {
					"DOMAIN_SEPARATOR()": {
						"notice": "Returns the domain separator for the current chain."
					}
				},
				"notice": "EIP712 helpers for permit2",
				"version": 1
			}
		}
	}
}