{
	"data": {
		"bytecode": {
			"linkReferences": {},
			"object": "60c060405234801561001057600080fd5b504660a0818152604080517f8cad95687ba82c2ce50e74f7b754645e5117c3a5bec8151c0726d5857980a8666020808301919091527f9ac997416e8ff9d2ff6bebeb7149f65cdae5e32e2b90440b566bb3044041d36a828401526060820194909452306080808301919091528251808303909101815292019052805191012060805260805160a0516116366100b760003960006103120152600061038901526116366000f3fe608060405234801561001057600080fd5b50600436106100935760003560e01c806336c785161161006657806336c78516146100ee57806365d9723c1461010157806387517c4514610114578063927da10514610127578063cc53287f146101a957600080fd5b80630d58b1db146100985780632a2d80d1146100ad5780632b67b570146100c05780633644e515146100d3575b600080fd5b6100ab6100a6366004610ecc565b6101bc565b005b6100ab6100bb3660046110bc565b61021f565b6100ab6100ce3660046111f0565b6102bf565b6100db61030e565b6040519081526020015b60405180910390f35b6100ab6100fc366004611296565b6103ab565b6100ab61010f3660046112f2565b6103b7565b6100ab610122366004611339565b6104fe565b61017b610135366004611393565b600060208181529381526040808220855292815282812090935282529020546001600160a01b0381169065ffffffffffff600160a01b8204811691600160d01b90041683565b604080516001600160a01b03909416845265ffffffffffff92831660208501529116908201526060016100e5565b6100ab6101b73660046113de565b610591565b8060005b818110156102195760008484838181106101dc576101dc611441565b9050608002018036038101906101f29190611457565b90506102108160000151826020015183604001518460600151610683565b506001016101c0565b50505050565b826040015142111561025557826040015160405163cd21db4f60e01b815260040161024c91815260200190565b60405180910390fd5b61027361026961026485610771565b6108bf565b8390839087610907565b602083015183515160005b818110156102b6576102ae8660000151828151811061029f5761029f611441565b60200260200101518885610b3e565b60010161027e565b50505050505050565b82604001514211156102ec57826040015160405163cd21db4f60e01b815260040161024c91815260200190565b6102fb61026961026485610c43565b6102198360000151858560200151610b3e565b60007f00000000000000000000000000000000000000000000000000000000000000004614610386576103817f8cad95687ba82c2ce50e74f7b754645e5117c3a5bec8151c0726d5857980a8667f9ac997416e8ff9d2ff6bebeb7149f65cdae5e32e2b90440b566bb3044041d36a610cc8565b905090565b507f000000000000000000000000000000000000000000000000000000000000000090565b61021984848484610683565b336000908152602081815260408083206001600160a01b038781168552908352818420908616845290915290205465ffffffffffff600160d01b9091048116908216811061041857604051633ab3447f60e11b815260040160405180910390fd5b80820361ffff65ffffffffffff8216111561044657604051631269ad1360e11b815260040160405180910390fd5b50336000818152602081815260408083206001600160a01b03898116808652918452828520908916808652935292819020805465ffffffffffff8816600160d01b0279ffffffffffffffffffffffffffffffffffffffffffffffffffff909116179055519092907f55eb90d810e1700b35a8e7e25395ff7f2b2259abd7415ca2284dfb1c246418f3906104f0908790879065ffffffffffff92831681529116602082015260400190565b60405180910390a450505050565b336000908152602081815260408083206001600160a01b03888116855290835281842090871684529091529020610536818484610d0a565b604080516001600160a01b03858116825265ffffffffffff85166020830152808716929088169133917fda9fa7c1b00402c17d0161b249b1ab8bbec047c5a52207b9c112deffd817036b910160405180910390a45050505050565b338160005b8181101561067c5760008585838181106105b2576105b2611441565b6105c892602060409092020190810191506114dc565b905060008686848181106105de576105de611441565b90506040020160200160208101906105f691906114dc565b6001600160a01b038681166000818152602081815260408083208886168085529083528184209587168085529583529281902080546001600160a01b0319169055805192835290820193909352929350917f89b1add15eff56b3dfe299ad94e01f2b52fbcb80ae1a3baea6ae8c04cb2b98a4910160405180910390a25050600101610596565b5050505050565b6001600160a01b0384811660009081526020818152604080832093851683529281528282203383529052208054600160a01b900465ffffffffffff164211156106f2578054604051636c0d979760e11b8152600160a01b90910465ffffffffffff16600482015260240161024c565b80546001600160a01b0390811690811461074f5780846001600160a01b031611156107335760405163f96fb07160e01b81526004810182905260240161024c565b81546001600160a01b0319168482036001600160a01b03161782555b6107696001600160a01b0384811690889088908816610d61565b505050505050565b805151600090818167ffffffffffffffff81111561079157610791610f69565b6040519080825280602002602001820160405280156107ba578160200160208202803683370190505b50905060005b8281101561081b576107ee856000015182815181106107e1576107e1611441565b6020026020010151610dff565b82828151811061080057610800611441565b602090810291909101015261081481611516565b90506107c0565b507faf1b0d30d2cab0380e68f0689007e3254993c596f2fdd0aaa7f4d04f794408638160405160200161084e919061152f565b60405160208183030381529060405280519060200120856020015186604001516040516020016108a0949392919093845260208401929092526001600160a01b03166040830152606082015260800190565b6040516020818303038152906040528051906020012092505050919050565b60006108c961030e565b60405161190160f01b60208201526022810191909152604281018390526062015b604051602081830303815290604052805190602001209050919050565b6000806000836001600160a01b03163b600003610a8d57604186900361095c5761093386880188611565565b90935091508686604081811061094b5761094b611441565b919091013560f81c91506109cd9050565b60408690036109b457600061097387890189611565565b9094507f7fffffffffffffffffffffffffffffffffffffffffffffffffffffffffffffff8116935090506109ac60ff82901c601b611587565b9150506109cd565b604051634be6321b60e01b815260040160405180910390fd5b6040805160008082526020820180845288905260ff841692820192909252606081018590526080810184905260019060a0016020604051602081039080840390855afa158015610a21573d6000803e3d6000fd5b5050604051601f1901519150506001600160a01b038116610a5557604051638baa579f60e01b815260040160405180910390fd5b846001600160a01b0316816001600160a01b031614610a8757604051632057875960e21b815260040160405180910390fd5b506102b6565b604051630b135d3f60e11b81526000906001600160a01b03861690631626ba7e90610ac09089908c908c906004016115a0565b602060405180830381865afa158015610add573d6000803e3d6000fd5b505050506040513d601f19601f82011682018060405250810190610b0191906115d6565b90506001600160e01b03198116630b135d3f60e11b14610b3457604051632c19a72f60e21b815260040160405180910390fd5b5050505050505050565b606083015183516020808601516040808801516001600160a01b03888116600090815280865283812082881682528652838120918916815294529220805491929165ffffffffffff808716600160d01b9092041614610bb057604051633ab3447f60e11b815260040160405180910390fd5b610bbc81848488610e76565b856001600160a01b0316846001600160a01b0316886001600160a01b03167fc6a377bfc4eb120024a8ac08eef205be16b817020812c73223e81d1bdb9708ec86868a604051610c31939291906001600160a01b0393909316835265ffffffffffff918216602084015216604082015260600190565b60405180910390a45050505050505050565b600080610c538360000151610dff565b60208085015160408087015181517ff3841cd1ff0085026a6327b620b67997ce40f282c88a8e905a7a5626e310f3d0948101949094529083018490526001600160a01b039091166060830152608082015290915060a00160405160208183030381529060405280519060200120915050919050565b604080516020810184905290810182905246606082015230608082015260009060a0016040516020818303038152906040528051906020012090505b92915050565b65ffffffffffff811615610d1e5780610d20565b425b83546001600160d01b031916600160a01b65ffffffffffff92909216919091026001600160a01b031916176001600160a01b03929092169190911790915550565b60006040516323b872dd60e01b81526001600160a01b03851660048201526001600160a01b03841660248201528260448201526020600060648360008a5af13d15601f3d116001600051141617169150508061067c5760405162461bcd60e51b815260206004820152601460248201527f5452414e534645525f46524f4d5f4641494c4544000000000000000000000000604482015260640161024c565b604080517f65626cad6cb96493bf6f5ebea28756c966f023ab9e8a83a7101849d5573b367860208083019190915283516001600160a01b039081168385015290840151166060808301919091529183015165ffffffffffff90811660808301529183015190911660a082015260009060c0016108ea565b60018101600065ffffffffffff841615610e905783610e92565b425b905060006001600160a01b03861660a083901b65ffffffffffff60a01b1660d085901b6001600160d01b0319161717909655505050505050565b60008060208385031215610edf57600080fd5b823567ffffffffffffffff80821115610ef757600080fd5b818501915085601f830112610f0b57600080fd5b813581811115610f1a57600080fd5b8660208260071b8501011115610f2f57600080fd5b60209290920196919550909350505050565b6001600160a01b0381168114610f5657600080fd5b50565b8035610f6481610f41565b919050565b634e487b7160e01b600052604160045260246000fd5b6040516060810167ffffffffffffffff81118282101715610fa257610fa2610f69565b60405290565b604051601f8201601f1916810167ffffffffffffffff81118282101715610fd157610fd1610f69565b604052919050565b803565ffffffffffff81168114610f6457600080fd5b60006080828403121561100157600080fd5b6040516080810181811067ffffffffffffffff8211171561102457611024610f69565b604052905080823561103581610f41565b8152602083013561104581610f41565b602082015261105660408401610fd9565b604082015261106760608401610fd9565b60608201525092915050565b60008083601f84011261108557600080fd5b50813567ffffffffffffffff81111561109d57600080fd5b6020830191508360208285010111156110b557600080fd5b9250929050565b600080600080606085870312156110d257600080fd5b84356110dd81610f41565b935060208581013567ffffffffffffffff808211156110fb57600080fd5b908701906060828a03121561110f57600080fd5b611117610f7f565b82358281111561112657600080fd5b8301601f81018b1361113757600080fd5b80358381111561114957611149610f69565b611157868260051b01610fa8565b81815260079190911b8201860190868101908d83111561117657600080fd5b928701925b8284101561119f5761118d8e85610fef565b8252878201915060808401935061117b565b8452506111b0915050838501610f59565b84820152604083013560408201528096505060408801359250808311156111d657600080fd5b50506111e487828801611073565b95989497509550505050565b60008060008084860361010081121561120857600080fd5b853561121381610f41565b945060c0601f198201121561122757600080fd5b506040516060810167ffffffffffffffff828210818311171561124c5761124c610f69565b8160405261125d8960208a01610fef565b835260a0880135915061126f82610f41565b81602084015260c0880135604084015282955060e08801359250808311156111d657600080fd5b600080600080608085870312156112ac57600080fd5b84356112b781610f41565b935060208501356112c781610f41565b925060408501356112d781610f41565b915060608501356112e781610f41565b939692955090935050565b60008060006060848603121561130757600080fd5b833561131281610f41565b9250602084013561132281610f41565b915061133060408501610fd9565b90509250925092565b6000806000806080858703121561134f57600080fd5b843561135a81610f41565b9350602085013561136a81610f41565b9250604085013561137a81610f41565b915061138860608601610fd9565b905092959194509250565b6000806000606084860312156113a857600080fd5b83356113b381610f41565b925060208401356113c381610f41565b915060408401356113d381610f41565b809150509250925092565b600080602083850312156113f157600080fd5b823567ffffffffffffffff8082111561140957600080fd5b818501915085601f83011261141d57600080fd5b81358181111561142c57600080fd5b8660208260061b8501011115610f2f57600080fd5b634e487b7160e01b600052603260045260246000fd5b60006080828403121561146957600080fd5b6040516080810181811067ffffffffffffffff8211171561148c5761148c610f69565b604052823561149a81610f41565b815260208301356114aa81610f41565b602082015260408301356114bd81610f41565b604082015260608301356114d081610f41565b60608201529392505050565b6000602082840312156114ee57600080fd5b81356114f981610f41565b9392505050565b634e487b7160e01b600052601160045260246000fd5b60006001820161152857611528611500565b5060010190565b815160009082906020808601845b838110156115595781518552938201939082019060010161153d565b50929695505050505050565b6000806040838503121561157857600080fd5b50508035926020909101359150565b60ff8181168382160190811115610d0457610d04611500565b83815260406020820152816040820152818360608301376000818301606090810191909152601f909201601f1916010192915050565b6000602082840312156115e857600080fd5b81516001600160e01b0319811681146114f957600080fdfea2646970667358221220b79f9b7a1ec1884595c775efb62373b825ed48e7c843e67da33e63563824de6e64736f6c63430008110033",
			"opcodes": "PUSH1 0xC0 PUSH1 0x40 MSTORE CALLVALUE DUP1 ISZERO PUSH2 0x10 JUMPI PUSH1 0x0 DUP1 REVERT JUMPDEST POP CHAINID PUSH1 0xA0 DUP2 DUP2 MSTORE PUSH1 0x40 DUP1 MLOAD PUSH32 0x8CAD95687BA82C2CE50E74F7B754645E5117C3A5BEC8151C0726D5857980A866 PUSH1 0x20 DUP1 DUP4 ADD SWAP2 SWAP1 SWAP2 MSTORE PUSH32 0x9AC997416E8FF9D2FF6BEBEB7149F65CDAE5E32E2B90440B566BB3044041D36A DUP3 DUP5 ADD MSTORE PUSH1 0x60 DUP3 ADD SWAP5 SWAP1 SWAP5 MSTORE ADDRESS PUSH1 0x80 DUP1 DUP4 ADD SWAP2 SWAP1 SWAP2 MSTORE DUP3 MLOAD DUP1 DUP4 SUB SWAP1 SWAP2 ADD DUP2 MSTORE SWAP3 ADD SWAP1 MSTORE DUP1 MLOAD SWAP2 ADD KECCAK256 PUSH1 0x80 MSTORE PUSH1 0x80 MLOAD PUSH1 0xA0 MLOAD PUSH2 0x1636 PUSH2 0xB7 PUSH1 0x0 CODECOPY PUSH1 0x0 PUSH2 0x312 ADD MSTORE PUSH1 0x0 PUSH2 0x389 ADD MSTORE PUSH2 0x1636 PUSH1 0x0 RETURN INVALID PUSH1 0x80 PUSH1 0x40 MSTORE CALLVALUE DUP1 ISZERO PUSH2 0x10 JUMPI PUSH1 0x0 DUP1 REVERT JUMPDEST POP PUSH1 0x4 CALLDATASIZE LT PUSH2 0x93 JUMPI PUSH1 0x0 CALLDATALOAD PUSH1 0xE0 SHR DUP1 PUSH4 0x36C78516 GT PUSH2 0x66 JUMPI DUP1 PUSH4 0x36C78516 EQ PUSH2 0xEE JUMPI DUP1 PUSH4 0x65D9723C EQ PUSH2 0x101 JUMPI DUP1 PUSH4 0x87517C45 EQ PUSH2 0x114 JUMPI DUP1 PUSH4 0x927DA105 EQ PUSH2 0x127 JUMPI DUP1 PUSH4 0xCC53287F EQ PUSH2 0x1A9 JUMPI PUSH1 0x0 DUP1 REVERT JUMPDEST DUP1 PUSH4 0xD58B1DB EQ PUSH2 0x98 JUMPI DUP1 PUSH4 0x2A2D80D1 EQ PUSH2 0xAD JUMPI DUP1 PUSH4 0x2B67B570 EQ PUSH2 0xC0 JUMPI DUP1 PUSH4 0x3644E515 EQ PUSH2 0xD3 JUMPI JUMPDEST PUSH1 0x0 DUP1 REVERT JUMPDEST PUSH2 0xAB PUSH2 0xA6 CALLDATASIZE PUSH1 0x4 PUSH2 0xECC JUMP JUMPDEST PUSH2 0x1BC JUMP JUMPDEST STOP JUMPDEST PUSH2 0xAB PUSH2 0xBB CALLDATASIZE PUSH1 0x4 PUSH2 0x10BC JUMP JUMPDEST PUSH2 0x21F JUMP JUMPDEST PUSH2 0xAB PUSH2 0xCE CALLDATASIZE PUSH1 0x4 PUSH2 0x11F0 JUMP JUMPDEST PUSH2 0x2BF JUMP JUMPDEST PUSH2 0xDB PUSH2 0x30E JUMP JUMPDEST PUSH1 0x40 MLOAD SWAP1 DUP2 MSTORE PUSH1 0x20 ADD JUMPDEST PUSH1 0x40 MLOAD DUP1 SWAP2 SUB SWAP1 RETURN JUMPDEST PUSH2 0xAB PUSH2 0xFC CALLDATASIZE PUSH1 0x4 PUSH2 0x1296 JUMP JUMPDEST PUSH2 0x3AB JUMP JUMPDEST PUSH2 0xAB PUSH2 0x10F CALLDATASIZE PUSH1 0x4 PUSH2 0x12F2 JUMP JUMPDEST PUSH2 0x3B7 JUMP JUMPDEST PUSH2 0xAB PUSH2 0x122 CALLDATASIZE PUSH1 0x4 PUSH2 0x1339 JUMP JUMPDEST PUSH2 0x4FE JUMP JUMPDEST PUSH2 0x17B PUSH2 0x135 CALLDATASIZE PUSH1 0x4 PUSH2 0x1393 JUMP JUMPDEST PUSH1 0x0 PUSH1 0x20 DUP2 DUP2 MSTORE SWAP4 DUP2 MSTORE PUSH1 0x40 DUP1 DUP3 KECCAK256 DUP6 MSTORE SWAP3 DUP2 MSTORE DUP3 DUP2 KECCAK256 SWAP1 SWAP4 MSTORE DUP3 MSTORE SWAP1 KECCAK256 SLOAD PUSH1 0x1 PUSH1 0x1 PUSH1 0xA0 SHL SUB DUP2 AND SWAP1 PUSH6 0xFFFFFFFFFFFF PUSH1 0x1 PUSH1 0xA0 SHL DUP3 DIV DUP2 AND SWAP2 PUSH1 0x1 PUSH1 0xD0 SHL SWAP1 DIV AND DUP4 JUMP JUMPDEST PUSH1 0x40 DUP1 MLOAD PUSH1 0x1 PUSH1 0x1 PUSH1 0xA0 SHL SUB SWAP1 SWAP5 AND DUP5 MSTORE PUSH6 0xFFFFFFFFFFFF SWAP3 DUP4 AND PUSH1 0x20 DUP6 ADD MSTORE SWAP2 AND SWAP1 DUP3 ADD MSTORE PUSH1 0x60 ADD PUSH2 0xE5 JUMP JUMPDEST PUSH2 0xAB PUSH2 0x1B7 CALLDATASIZE PUSH1 0x4 PUSH2 0x13DE JUMP JUMPDEST PUSH2 0x591 JUMP JUMPDEST DUP1 PUSH1 0x0 JUMPDEST DUP2 DUP2 LT ISZERO PUSH2 0x219 JUMPI PUSH1 0x0 DUP5 DUP5 DUP4 DUP2 DUP2 LT PUSH2 0x1DC JUMPI PUSH2 0x1DC PUSH2 0x1441 JUMP JUMPDEST SWAP1 POP PUSH1 0x80 MUL ADD DUP1 CALLDATASIZE SUB DUP2 ADD SWAP1 PUSH2 0x1F2 SWAP2 SWAP1 PUSH2 0x1457 JUMP JUMPDEST SWAP1 POP PUSH2 0x210 DUP2 PUSH1 0x0 ADD MLOAD DUP3 PUSH1 0x20 ADD MLOAD DUP4 PUSH1 0x40 ADD MLOAD DUP5 PUSH1 0x60 ADD MLOAD PUSH2 0x683 JUMP JUMPDEST POP PUSH1 0x1 ADD PUSH2 0x1C0 JUMP JUMPDEST POP POP POP POP JUMP JUMPDEST DUP3 PUSH1 0x40 ADD MLOAD TIMESTAMP GT ISZERO PUSH2 0x255 JUMPI DUP3 PUSH1 0x40 ADD MLOAD PUSH1 0x40 MLOAD PUSH4 0xCD21DB4F PUSH1 0xE0 SHL DUP2 MSTORE PUSH1 0x4 ADD PUSH2 0x24C SWAP2 DUP2 MSTORE PUSH1 0x20 ADD SWAP1 JUMP JUMPDEST PUSH1 0x40 MLOAD DUP1 SWAP2 SUB SWAP1 REVERT JUMPDEST PUSH2 0x273 PUSH2 0x269 PUSH2 0x264 DUP6 PUSH2 0x771 JUMP JUMPDEST PUSH2 0x8BF JUMP JUMPDEST DUP4 SWAP1 DUP4 SWAP1 DUP8 PUSH2 0x907 JUMP JUMPDEST PUSH1 0x20 DUP4 ADD MLOAD DUP4 MLOAD MLOAD PUSH1 0x0 JUMPDEST DUP2 DUP2 LT ISZERO PUSH2 0x2B6 JUMPI PUSH2 0x2AE DUP7 PUSH1 0x0 ADD MLOAD DUP3 DUP2 MLOAD DUP2 LT PUSH2 0x29F JUMPI PUSH2 0x29F PUSH2 0x1441 JUMP JUMPDEST PUSH1 0x20 MUL PUSH1 0x20 ADD ADD MLOAD DUP9 DUP6 PUSH2 0xB3E JUMP JUMPDEST PUSH1 0x1 ADD PUSH2 0x27E JUMP JUMPDEST POP POP POP POP POP POP POP JUMP JUMPDEST DUP3 PUSH1 0x40 ADD MLOAD TIMESTAMP GT ISZERO PUSH2 0x2EC JUMPI DUP3 PUSH1 0x40 ADD MLOAD PUSH1 0x40 MLOAD PUSH4 0xCD21DB4F PUSH1 0xE0 SHL DUP2 MSTORE PUSH1 0x4 ADD PUSH2 0x24C SWAP2 DUP2 MSTORE PUSH1 0x20 ADD SWAP1 JUMP JUMPDEST PUSH2 0x2FB PUSH2 0x269 PUSH2 0x264 DUP6 PUSH2 0xC43 JUMP JUMPDEST PUSH2 0x219 DUP4 PUSH1 0x0 ADD MLOAD DUP6 DUP6 PUSH1 0x20 ADD MLOAD PUSH2 0xB3E JUMP JUMPDEST PUSH1 0x0 PUSH32 0x0 CHAINID EQ PUSH2 0x386 JUMPI PUSH2 0x381 PUSH32 0x8CAD95687BA82C2CE50E74F7B754645E5117C3A5BEC8151C0726D5857980A866 PUSH32 0x9AC997416E8FF9D2FF6BEBEB7149F65CDAE5E32E2B90440B566BB3044041D36A PUSH2 0xCC8 JUMP JUMPDEST SWAP1 POP SWAP1 JUMP JUMPDEST POP PUSH32 0x0 SWAP1 JUMP JUMPDEST PUSH2 0x219 DUP5 DUP5 DUP5 DUP5 PUSH2 0x683 JUMP JUMPDEST CALLER PUSH1 0x0 SWAP1 DUP2 MSTORE PUSH1 0x20 DUP2 DUP2 MSTORE PUSH1 0x40 DUP1 DUP4 KECCAK256 PUSH1 0x1 PUSH1 0x1 PUSH1 0xA0 SHL SUB DUP8 DUP2 AND DUP6 MSTORE SWAP1 DUP4 MSTORE DUP2 DUP5 KECCAK256 SWAP1 DUP7 AND DUP5 MSTORE SWAP1 SWAP2 MSTORE SWAP1 KECCAK256 SLOAD PUSH6 0xFFFFFFFFFFFF PUSH1 0x1 PUSH1 0xD0 SHL SWAP1 SWAP2 DIV DUP2 AND SWAP1 DUP3 AND DUP2 LT PUSH2 0x418 JUMPI PUSH1 0x40 MLOAD PUSH4 0x3AB3447F PUSH1 0xE1 SHL DUP2 MSTORE PUSH1 0x4 ADD PUSH1 0x40 MLOAD DUP1 SWAP2 SUB SWAP1 REVERT JUMPDEST DUP1 DUP3 SUB PUSH2 0xFFFF PUSH6 0xFFFFFFFFFFFF DUP3 AND GT ISZERO PUSH2 0x446 JUMPI PUSH1 0x40 MLOAD PUSH4 0x1269AD13 PUSH1 0xE1 SHL DUP2 MSTORE PUSH1 0x4 ADD PUSH1 0x40 MLOAD DUP1 SWAP2 SUB SWAP1 REVERT JUMPDEST POP CALLER PUSH1 0x0 DUP2 DUP2 MSTORE PUSH1 0x20 DUP2 DUP2 MSTORE PUSH1 0x40 DUP1 DUP4 KECCAK256 PUSH1 0x1 PUSH1 0x1 PUSH1 0xA0 SHL SUB DUP10 DUP2 AND DUP1 DUP7 MSTORE SWAP2 DUP5 MSTORE DUP3 DUP6 KECCAK256 SWAP1 DUP10 AND DUP1 DUP7 MSTORE SWAP4 MSTORE SWAP3 DUP2 SWAP1 KECCAK256 DUP1 SLOAD PUSH6 0xFFFFFFFFFFFF DUP9 AND PUSH1 0x1 PUSH1 0xD0 SHL MUL PUSH26 0xFFFFFFFFFFFFFFFFFFFFFFFFFFFFFFFFFFFFFFFFFFFFFFFFFFFF SWAP1 SWAP2 AND OR SWAP1 SSTORE MLOAD SWAP1 SWAP3 SWAP1 PUSH32 0x55EB90D810E1700B35A8E7E25395FF7F2B2259ABD7415CA2284DFB1C246418F3 SWAP1 PUSH2 0x4F0 SWAP1 DUP8 SWAP1 DUP8 SWAP1 PUSH6 0xFFFFFFFFFFFF SWAP3 DUP4 AND DUP2 MSTORE SWAP2 AND PUSH1 0x20 DUP3 ADD MSTORE PUSH1 0x40 ADD SWAP1 JUMP JUMPDEST PUSH1 0x40 MLOAD DUP1 SWAP2 SUB SWAP1 LOG4 POP POP POP POP JUMP JUMPDEST CALLER PUSH1 0x0 SWAP1 DUP2 MSTORE PUSH1 0x20 DUP2 DUP2 MSTORE PUSH1 0x40 DUP1 DUP4 KECCAK256 PUSH1 0x1 PUSH1 0x1 PUSH1 0xA0 SHL SUB DUP9 DUP2 AND DUP6 MSTORE SWAP1 DUP4 MSTORE DUP2 DUP5 KECCAK256 SWAP1 DUP8 AND DUP5 MSTORE SWAP1 SWAP2 MSTORE SWAP1 KECCAK256 PUSH2 0x536 DUP2 DUP5 DUP5 PUSH2 0xD0A JUMP JUMPDEST PUSH1 0x40 DUP1 MLOAD PUSH1 0x1 PUSH1 0x1 PUSH1 0xA0 SHL SUB DUP6 DUP2 AND DUP3 MSTORE PUSH6 0xFFFFFFFFFFFF DUP6 AND PUSH1 0x20 DUP4 ADD MSTORE DUP1 DUP8 AND SWAP3 SWAP1 DUP9 AND SWAP2 CALLER SWAP2 PUSH32 0xDA9FA7C1B00402C17D0161B249B1AB8BBEC047C5A52207B9C112DEFFD817036B SWAP2 ADD PUSH1 0x40 MLOAD DUP1 SWAP2 SUB SWAP1 LOG4 POP POP POP POP POP JUMP JUMPDEST CALLER DUP2 PUSH1 0x0 JUMPDEST DUP2 DUP2 LT ISZERO PUSH2 0x67C JUMPI PUSH1 0x0 DUP6 DUP6 DUP4 DUP2 DUP2 LT PUSH2 0x5B2 JUMPI PUSH2 0x5B2 PUSH2 0x1441 JUMP JUMPDEST PUSH2 0x5C8 SWAP3 PUSH1 0x20 PUSH1 0x40 SWAP1 SWAP3 MUL ADD SWAP1 DUP2 ADD SWAP2 POP PUSH2 0x14DC JUMP JUMPDEST SWAP1 POP PUSH1 0x0 DUP7 DUP7 DUP5 DUP2 DUP2 LT PUSH2 0x5DE JUMPI PUSH2 0x5DE PUSH2 0x1441 JUMP JUMPDEST SWAP1 POP PUSH1 0x40 MUL ADD PUSH1 0x20 ADD PUSH1 0x20 DUP2 ADD SWAP1 PUSH2 0x5F6 SWAP2 SWAP1 PUSH2 0x14DC JUMP JUMPDEST PUSH1 0x1 PUSH1 0x1 PUSH1 0xA0 SHL SUB DUP7 DUP2 AND PUSH1 0x0 DUP2 DUP2 MSTORE PUSH1 0x20 DUP2 DUP2 MSTORE PUSH1 0x40 DUP1 DUP4 KECCAK256 DUP9 DUP7 AND DUP1 DUP6 MSTORE SWAP1 DUP4 MSTORE DUP2 DUP5 KECCAK256 SWAP6 DUP8 AND DUP1 DUP6 MSTORE SWAP6 DUP4 MSTORE SWAP3 DUP2 SWAP1 KECCAK256 DUP1 SLOAD PUSH1 0x1 PUSH1 0x1 PUSH1 0xA0 SHL SUB NOT AND SWAP1 SSTORE DUP1 MLOAD SWAP3 DUP4 MSTORE SWAP1 DUP3 ADD SWAP4 SWAP1 SWAP4 MSTORE SWAP3 SWAP4 POP SWAP2 PUSH32 0x89B1ADD15EFF56B3DFE299AD94E01F2B52FBCB80AE1A3BAEA6AE8C04CB2B98A4 SWAP2 ADD PUSH1 0x40 MLOAD DUP1 SWAP2 SUB SWAP1 LOG2 POP POP PUSH1 0x1 ADD PUSH2 0x596 JUMP JUMPDEST POP POP POP POP POP JUMP JUMPDEST PUSH1 0x1 PUSH1 0x1 PUSH1 0xA0 SHL SUB DUP5 DUP2 AND PUSH1 0x0 SWAP1 DUP2 MSTORE PUSH1 0x20 DUP2 DUP2 MSTORE PUSH1 0x40 DUP1 DUP4 KECCAK256 SWAP4 DUP6 AND DUP4 MSTORE SWAP3 DUP2 MSTORE DUP3 DUP3 KECCAK256 CALLER DUP4 MSTORE SWAP1 MSTORE KECCAK256 DUP1 SLOAD PUSH1 0x1 PUSH1 0xA0 SHL SWAP1 DIV PUSH6 0xFFFFFFFFFFFF AND TIMESTAMP GT ISZERO PUSH2 0x6F2 JUMPI DUP1 SLOAD PUSH1 0x40 MLOAD PUSH4 0x6C0D9797 PUSH1 0xE1 SHL DUP2 MSTORE PUSH1 0x1 PUSH1 0xA0 SHL SWAP1 SWAP2 DIV PUSH6 0xFFFFFFFFFFFF AND PUSH1 0x4 DUP3 ADD MSTORE PUSH1 0x24 ADD PUSH2 0x24C JUMP JUMPDEST DUP1 SLOAD PUSH1 0x1 PUSH1 0x1 PUSH1 0xA0 SHL SUB SWAP1 DUP2 AND SWAP1 DUP2 EQ PUSH2 0x74F JUMPI DUP1 DUP5 PUSH1 0x1 PUSH1 0x1 PUSH1 0xA0 SHL SUB AND GT ISZERO PUSH2 0x733 JUMPI PUSH1 0x40 MLOAD PUSH4 0xF96FB071 PUSH1 0xE0 SHL DUP2 MSTORE PUSH1 0x4 DUP2 ADD DUP3 SWAP1 MSTORE PUSH1 0x24 ADD PUSH2 0x24C JUMP JUMPDEST DUP2 SLOAD PUSH1 0x1 PUSH1 0x1 PUSH1 0xA0 SHL SUB NOT AND DUP5 DUP3 SUB PUSH1 0x1 PUSH1 0x1 PUSH1 0xA0 SHL SUB AND OR DUP3 SSTORE JUMPDEST PUSH2 0x769 PUSH1 0x1 PUSH1 0x1 PUSH1 0xA0 SHL SUB DUP5 DUP2 AND SWAP1 DUP9 SWAP1 DUP9 SWAP1 DUP9 AND PUSH2 0xD61 JUMP JUMPDEST POP POP POP POP POP POP JUMP JUMPDEST DUP1 MLOAD MLOAD PUSH1 0x0 SWAP1 DUP2 DUP2 PUSH8 0xFFFFFFFFFFFFFFFF DUP2 GT ISZERO PUSH2 0x791 JUMPI PUSH2 0x791 PUSH2 0xF69 JUMP JUMPDEST PUSH1 0x40 MLOAD SWAP1 DUP1 DUP3 MSTORE DUP1 PUSH1 0x20 MUL PUSH1 0x20 ADD DUP3 ADD PUSH1 0x40 MSTORE DUP1 ISZERO PUSH2 0x7BA JUMPI DUP2 PUSH1 0x20 ADD PUSH1 0x20 DUP3 MUL DUP1 CALLDATASIZE DUP4 CALLDATACOPY ADD SWAP1 POP JUMPDEST POP SWAP1 POP PUSH1 0x0 JUMPDEST DUP3 DUP2 LT ISZERO PUSH2 0x81B JUMPI PUSH2 0x7EE DUP6 PUSH1 0x0 ADD MLOAD DUP3 DUP2 MLOAD DUP2 LT PUSH2 0x7E1 JUMPI PUSH2 0x7E1 PUSH2 0x1441 JUMP JUMPDEST PUSH1 0x20 MUL PUSH1 0x20 ADD ADD MLOAD PUSH2 0xDFF JUMP JUMPDEST DUP3 DUP3 DUP2 MLOAD DUP2 LT PUSH2 0x800 JUMPI PUSH2 0x800 PUSH2 0x1441 JUMP JUMPDEST PUSH1 0x20 SWAP1 DUP2 MUL SWAP2 SWAP1 SWAP2 ADD ADD MSTORE PUSH2 0x814 DUP2 PUSH2 0x1516 JUMP JUMPDEST SWAP1 POP PUSH2 0x7C0 JUMP JUMPDEST POP PUSH32 0xAF1B0D30D2CAB0380E68F0689007E3254993C596F2FDD0AAA7F4D04F79440863 DUP2 PUSH1 0x40 MLOAD PUSH1 0x20 ADD PUSH2 0x84E SWAP2 SWAP1 PUSH2 0x152F JUMP JUMPDEST PUSH1 0x40 MLOAD PUSH1 0x20 DUP2 DUP4 SUB SUB DUP2 MSTORE SWAP1 PUSH1 0x40 MSTORE DUP1 MLOAD SWAP1 PUSH1 0x20 ADD KECCAK256 DUP6 PUSH1 0x20 ADD MLOAD DUP7 PUSH1 0x40 ADD MLOAD PUSH1 0x40 MLOAD PUSH1 0x20 ADD PUSH2 0x8A0 SWAP5 SWAP4 SWAP3 SWAP2 SWAP1 SWAP4 DUP5 MSTORE PUSH1 0x20 DUP5 ADD SWAP3 SWAP1 SWAP3 MSTORE PUSH1 0x1 PUSH1 0x1 PUSH1 0xA0 SHL SUB AND PUSH1 0x40 DUP4 ADD MSTORE PUSH1 0x60 DUP3 ADD MSTORE PUSH1 0x80 ADD SWAP1 JUMP JUMPDEST PUSH1 0x40 MLOAD PUSH1 0x20 DUP2 DUP4 SUB SUB DUP2 MSTORE SWAP1 PUSH1 0x40 MSTORE DUP1 MLOAD SWAP1 PUSH1 0x20 ADD KECCAK256 SWAP3 POP POP POP SWAP2 SWAP1 POP JUMP JUMPDEST PUSH1 0x0 PUSH2 0x8C9 PUSH2 0x30E JUMP JUMPDEST PUSH1 0x40 MLOAD PUSH2 0x1901 PUSH1 0xF0 SHL PUSH1 0x20 DUP3 ADD MSTORE PUSH1 0x22 DUP2 ADD SWAP2 SWAP1 SWAP2 MSTORE PUSH1 0x42 DUP2 ADD DUP4 SWAP1 MSTORE PUSH1 0x62 ADD JUMPDEST PUSH1 0x40 MLOAD PUSH1 0x20 DUP2 DUP4 SUB SUB DUP2 MSTORE SWAP1 PUSH1 0x40 MSTORE DUP1 MLOAD SWAP1 PUSH1 0x20 ADD KECCAK256 SWAP1 POP SWAP2 SWAP1 POP JUMP JUMPDEST PUSH1 0x0 DUP1 PUSH1 0x0 DUP4 PUSH1 0x1 PUSH1 0x1 PUSH1 0xA0 SHL SUB AND EXTCODESIZE PUSH1 0x0 SUB PUSH2 0xA8D JUMPI PUSH1 0x41 DUP7 SWAP1 SUB PUSH2 0x95C JUMPI PUSH2 0x933 DUP7 DUP9 ADD DUP9 PUSH2 0x1565 JUMP JUMPDEST SWAP1 SWAP4 POP SWAP2 POP DUP7 DUP7 PUSH1 0x40 DUP2 DUP2 LT PUSH2 0x94B JUMPI PUSH2 0x94B PUSH2 0x1441 JUMP JUMPDEST SWAP2 SWAP1 SWAP2 ADD CALLDATALOAD PUSH1 0xF8 SHR SWAP2 POP PUSH2 0x9CD SWAP1 POP JUMP JUMPDEST PUSH1 0x40 DUP7 SWAP1 SUB PUSH2 0x9B4 JUMPI PUSH1 0x0 PUSH2 0x973 DUP8 DUP10 ADD DUP10 PUSH2 0x1565 JUMP JUMPDEST SWAP1 SWAP5 POP PUSH32 0x7FFFFFFFFFFFFFFFFFFFFFFFFFFFFFFFFFFFFFFFFFFFFFFFFFFFFFFFFFFFFFFF DUP2 AND SWAP4 POP SWAP1 POP PUSH2 0x9AC PUSH1 0xFF DUP3 SWAP1 SHR PUSH1 0x1B PUSH2 0x1587 JUMP JUMPDEST SWAP2 POP POP PUSH2 0x9CD JUMP JUMPDEST PUSH1 0x40 MLOAD PUSH4 0x4BE6321B PUSH1 0xE0 SHL DUP2 MSTORE PUSH1 0x4 ADD PUSH1 0x40 MLOAD DUP1 SWAP2 SUB SWAP1 REVERT JUMPDEST PUSH1 0x40 DUP1 MLOAD PUSH1 0x0 DUP1 DUP3 MSTORE PUSH1 0x20 DUP3 ADD DUP1 DUP5 MSTORE DUP9 SWAP1 MSTORE PUSH1 0xFF DUP5 AND SWAP3 DUP3 ADD SWAP3 SWAP1 SWAP3 MSTORE PUSH1 0x60 DUP2 ADD DUP6 SWAP1 MSTORE PUSH1 0x80 DUP2 ADD DUP5 SWAP1 MSTORE PUSH1 0x1 SWAP1 PUSH1 0xA0 ADD PUSH1 0x20 PUSH1 0x40 MLOAD PUSH1 0x20 DUP2 SUB SWAP1 DUP1 DUP5 SUB SWAP1 DUP6 GAS STATICCALL ISZERO DUP1 ISZERO PUSH2 0xA21 JUMPI RETURNDATASIZE PUSH1 0x0 DUP1 RETURNDATACOPY RETURNDATASIZE PUSH1 0x0 REVERT JUMPDEST POP POP PUSH1 0x40 MLOAD PUSH1 0x1F NOT ADD MLOAD SWAP2 POP POP PUSH1 0x1 PUSH1 0x1 PUSH1 0xA0 SHL SUB DUP2 AND PUSH2 0xA55 JUMPI PUSH1 0x40 MLOAD PUSH4 0x8BAA579F PUSH1 0xE0 SHL DUP2 MSTORE PUSH1 0x4 ADD PUSH1 0x40 MLOAD DUP1 SWAP2 SUB SWAP1 REVERT JUMPDEST DUP5 PUSH1 0x1 PUSH1 0x1 PUSH1 0xA0 SHL SUB AND DUP2 PUSH1 0x1 PUSH1 0x1 PUSH1 0xA0 SHL SUB AND EQ PUSH2 0xA87 JUMPI PUSH1 0x40 MLOAD PUSH4 0x20578759 PUSH1 0xE2 SHL DUP2 MSTORE PUSH1 0x4 ADD PUSH1 0x40 MLOAD DUP1 SWAP2 SUB SWAP1 REVERT JUMPDEST POP PUSH2 0x2B6 JUMP JUMPDEST PUSH1 0x40 MLOAD PUSH4 0xB135D3F PUSH1 0xE1 SHL DUP2 MSTORE PUSH1 0x0 SWAP1 PUSH1 0x1 PUSH1 0x1 PUSH1 0xA0 SHL SUB DUP7 AND SWAP1 PUSH4 0x1626BA7E SWAP1 PUSH2 0xAC0 SWAP1 DUP10 SWAP1 DUP13 SWAP1 DUP13 SWAP1 PUSH1 0x4 ADD PUSH2 0x15A0 JUMP JUMPDEST PUSH1 0x20 PUSH1 0x40 MLOAD DUP1 DUP4 SUB DUP2 DUP7 GAS STATICCALL ISZERO DUP1 ISZERO PUSH2 0xADD JUMPI RETURNDATASIZE PUSH1 0x0 DUP1 RETURNDATACOPY RETURNDATASIZE PUSH1 0x0 REVERT JUMPDEST POP POP POP POP PUSH1 0x40 MLOAD RETURNDATASIZE PUSH1 0x1F NOT PUSH1 0x1F DUP3 ADD AND DUP3 ADD DUP1 PUSH1 0x40 MSTORE POP DUP2 ADD SWAP1 PUSH2 0xB01 SWAP2 SWAP1 PUSH2 0x15D6 JUMP JUMPDEST SWAP1 POP PUSH1 0x1 PUSH1 0x1 PUSH1 0xE0 SHL SUB NOT DUP2 AND PUSH4 0xB135D3F PUSH1 0xE1 SHL EQ PUSH2 0xB34 JUMPI PUSH1 0x40 MLOAD PUSH4 0x2C19A72F PUSH1 0xE2 SHL DUP2 MSTORE PUSH1 0x4 ADD PUSH1 0x40 MLOAD DUP1 SWAP2 SUB SWAP1 REVERT JUMPDEST POP POP POP POP POP POP POP POP JUMP JUMPDEST PUSH1 0x60 DUP4 ADD MLOAD DUP4 MLOAD PUSH1 0x20 DUP1 DUP7 ADD MLOAD PUSH1 0x40 DUP1 DUP9 ADD MLOAD PUSH1 0x1 PUSH1 0x1 PUSH1 0xA0 SHL SUB DUP9 DUP2 AND PUSH1 0x0 SWAP1 DUP2 MSTORE DUP1 DUP7 MSTORE DUP4 DUP2 KECCAK256 DUP3 DUP9 AND DUP3 MSTORE DUP7 MSTORE DUP4 DUP2 KECCAK256 SWAP2 DUP10 AND DUP2 MSTORE SWAP5 MSTORE SWAP3 KECCAK256 DUP1 SLOAD SWAP2 SWAP3 SWAP2 PUSH6 0xFFFFFFFFFFFF DUP1 DUP8 AND PUSH1 0x1 PUSH1 0xD0 SHL SWAP1 SWAP3 DIV AND EQ PUSH2 0xBB0 JUMPI PUSH1 0x40 MLOAD PUSH4 0x3AB3447F PUSH1 0xE1 SHL DUP2 MSTORE PUSH1 0x4 ADD PUSH1 0x40 MLOAD DUP1 SWAP2 SUB SWAP1 REVERT JUMPDEST PUSH2 0xBBC DUP2 DUP5 DUP5 DUP9 PUSH2 0xE76 JUMP JUMPDEST DUP6 PUSH1 0x1 PUSH1 0x1 PUSH1 0xA0 SHL SUB AND DUP5 PUSH1 0x1 PUSH1 0x1 PUSH1 0xA0 SHL SUB AND DUP9 PUSH1 0x1 PUSH1 0x1 PUSH1 0xA0 SHL SUB AND PUSH32 0xC6A377BFC4EB120024A8AC08EEF205BE16B817020812C73223E81D1BDB9708EC DUP7 DUP7 DUP11 PUSH1 0x40 MLOAD PUSH2 0xC31 SWAP4 SWAP3 SWAP2 SWAP1 PUSH1 0x1 PUSH1 0x1 PUSH1 0xA0 SHL SUB SWAP4 SWAP1 SWAP4 AND DUP4 MSTORE PUSH6 0xFFFFFFFFFFFF SWAP2 DUP3 AND PUSH1 0x20 DUP5 ADD MSTORE AND PUSH1 0x40 DUP3 ADD MSTORE PUSH1 0x60 ADD SWAP1 JUMP JUMPDEST PUSH1 0x40 MLOAD DUP1 SWAP2 SUB SWAP1 LOG4 POP POP POP POP POP POP POP POP JUMP JUMPDEST PUSH1 0x0 DUP1 PUSH2 0xC53 DUP4 PUSH1 0x0 ADD MLOAD PUSH2 0xDFF JUMP JUMPDEST PUSH1 0x20 DUP1 DUP6 ADD MLOAD PUSH1 0x40 DUP1 DUP8 ADD MLOAD DUP2 MLOAD PUSH32 0xF3841CD1FF0085026A6327B620B67997CE40F282C88A8E905A7A5626E310F3D0 SWAP5 DUP2 ADD SWAP5 SWAP1 SWAP5 MSTORE SWAP1 DUP4 ADD DUP5 SWAP1 MSTORE PUSH1 0x1 PUSH1 0x1 PUSH1 0xA0 SHL SUB SWAP1 SWAP2 AND PUSH1 0x60 DUP4 ADD MSTORE PUSH1 0x80 DUP3 ADD MSTORE SWAP1 SWAP2 POP PUSH1 0xA0 ADD PUSH1 0x40 MLOAD PUSH1 0x20 DUP2 DUP4 SUB SUB DUP2 MSTORE SWAP1 PUSH1 0x40 MSTORE DUP1 MLOAD SWAP1 PUSH1 0x20 ADD KECCAK256 SWAP2 POP POP SWAP2 SWAP1 POP JUMP JUMPDEST PUSH1 0x40 DUP1 MLOAD PUSH1 0x20 DUP2 ADD DUP5 SWAP1 MSTORE SWAP1 DUP2 ADD DUP3 SWAP1 MSTORE CHAINID PUSH1 0x60 DUP3 ADD MSTORE ADDRESS PUSH1 0x80 DUP3 ADD MSTORE PUSH1 0x0 SWAP1 PUSH1 0xA0 ADD PUSH1 0x40 MLOAD PUSH1 0x20 DUP2 DUP4 SUB SUB DUP2 MSTORE SWAP1 PUSH1 0x40 MSTORE DUP1 MLOAD SWAP1 PUSH1 0x20 ADD KECCAK256 SWAP1 POP JUMPDEST SWAP3 SWAP2 POP POP JUMP JUMPDEST PUSH6 0xFFFFFFFFFFFF DUP2 AND ISZERO PUSH2 0xD1E JUMPI DUP1 PUSH2 0xD20 JUMP JUMPDEST TIMESTAMP JUMPDEST DUP4 SLOAD PUSH1 0x1 PUSH1 0x1 PUSH1 0xD0 SHL SUB NOT AND PUSH1 0x1 PUSH1 0xA0 SHL PUSH6 0xFFFFFFFFFFFF SWAP3 SWAP1 SWAP3 AND SWAP2 SWAP1 SWAP2 MUL PUSH1 0x1 PUSH1 0x1 PUSH1 0xA0 SHL SUB NOT AND OR PUSH1 0x1 PUSH1 0x1 PUSH1 0xA0 SHL SUB SWAP3 SWAP1 SWAP3 AND SWAP2 SWAP1 SWAP2 OR SWAP1 SWAP2 SSTORE POP JUMP JUMPDEST PUSH1 0x0 PUSH1 0x40 MLOAD PUSH4 0x23B872DD PUSH1 0xE0 SHL DUP2 MSTORE PUSH1 0x1 PUSH1 0x1 PUSH1 0xA0 SHL SUB DUP6 AND PUSH1 0x4 DUP3 ADD MSTORE PUSH1 0x1 PUSH1 0x1 PUSH1 0xA0 SHL SUB DUP5 AND PUSH1 0x24 DUP3 ADD MSTORE DUP3 PUSH1 0x44 DUP3 ADD MSTORE PUSH1 0x20 PUSH1 0x0 PUSH1 0x64 DUP4 PUSH1 0x0 DUP11 GAS CALL RETURNDATASIZE ISZERO PUSH1 0x1F RETURNDATASIZE GT PUSH1 0x1 PUSH1 0x0 MLOAD EQ AND OR AND SWAP2 POP POP DUP1 PUSH2 0x67C JUMPI PUSH1 0x40 MLOAD PUSH3 0x461BCD PUSH1 0xE5 SHL DUP2 MSTORE PUSH1 0x20 PUSH1 0x4 DUP3 ADD MSTORE PUSH1 0x14 PUSH1 0x24 DUP3 ADD MSTORE PUSH32 0x5452414E534645525F46524F4D5F4641494C4544000000000000000000000000 PUSH1 0x44 DUP3 ADD MSTORE PUSH1 0x64 ADD PUSH2 0x24C JUMP JUMPDEST PUSH1 0x40 DUP1 MLOAD PUSH32 0x65626CAD6CB96493BF6F5EBEA28756C966F023AB9E8A83A7101849D5573B3678 PUSH1 0x20 DUP1 DUP4 ADD SWAP2 SWAP1 SWAP2 MSTORE DUP4 MLOAD PUSH1 0x1 PUSH1 0x1 PUSH1 0xA0 SHL SUB SWAP1 DUP2 AND DUP4 DUP6 ADD MSTORE SWAP1 DUP5 ADD MLOAD AND PUSH1 0x60 DUP1 DUP4 ADD SWAP2 SWAP1 SWAP2 MSTORE SWAP2 DUP4 ADD MLOAD PUSH6 0xFFFFFFFFFFFF SWAP1 DUP2 AND PUSH1 0x80 DUP4 ADD MSTORE SWAP2 DUP4 ADD MLOAD SWAP1 SWAP2 AND PUSH1 0xA0 DUP3 ADD MSTORE PUSH1 0x0 SWAP1 PUSH1 0xC0 ADD PUSH2 0x8EA JUMP JUMPDEST PUSH1 0x1 DUP2 ADD PUSH1 0x0 PUSH6 0xFFFFFFFFFFFF DUP5 AND ISZERO PUSH2 0xE90 JUMPI DUP4 PUSH2 0xE92 JUMP JUMPDEST TIMESTAMP JUMPDEST SWAP1 POP PUSH1 0x0 PUSH1 0x1 PUSH1 0x1 PUSH1 0xA0 SHL SUB DUP7 AND PUSH1 0xA0 DUP4 SWAP1 SHL PUSH6 0xFFFFFFFFFFFF PUSH1 0xA0 SHL AND PUSH1 0xD0 DUP6 SWAP1 SHL PUSH1 0x1 PUSH1 0x1 PUSH1 0xD0 SHL SUB NOT AND OR OR SWAP1 SWAP7 SSTORE POP POP POP POP POP POP JUMP JUMPDEST PUSH1 0x0 DUP1 PUSH1 0x20 DUP4 DUP6 SUB SLT ISZERO PUSH2 0xEDF JUMPI PUSH1 0x0 DUP1 REVERT JUMPDEST DUP3 CALLDATALOAD PUSH8 0xFFFFFFFFFFFFFFFF DUP1 DUP3 GT ISZERO PUSH2 0xEF7 JUMPI PUSH1 0x0 DUP1 REVERT JUMPDEST DUP2 DUP6 ADD SWAP2 POP DUP6 PUSH1 0x1F DUP4 ADD SLT PUSH2 0xF0B JUMPI PUSH1 0x0 DUP1 REVERT JUMPDEST DUP2 CALLDATALOAD DUP2 DUP2 GT ISZERO PUSH2 0xF1A JUMPI PUSH1 0x0 DUP1 REVERT JUMPDEST DUP7 PUSH1 0x20 DUP3 PUSH1 0x7 SHL DUP6 ADD ADD GT ISZERO PUSH2 0xF2F JUMPI PUSH1 0x0 DUP1 REVERT JUMPDEST PUSH1 0x20 SWAP3 SWAP1 SWAP3 ADD SWAP7 SWAP2 SWAP6 POP SWAP1 SWAP4 POP POP POP POP JUMP JUMPDEST PUSH1 0x1 PUSH1 0x1 PUSH1 0xA0 SHL SUB DUP2 AND DUP2 EQ PUSH2 0xF56 JUMPI PUSH1 0x0 DUP1 REVERT JUMPDEST POP JUMP JUMPDEST DUP1 CALLDATALOAD PUSH2 0xF64 DUP2 PUSH2 0xF41 JUMP JUMPDEST SWAP2 SWAP1 POP JUMP JUMPDEST PUSH4 0x4E487B71 PUSH1 0xE0 SHL PUSH1 0x0 MSTORE PUSH1 0x41 PUSH1 0x4 MSTORE PUSH1 0x24 PUSH1 0x0 REVERT JUMPDEST PUSH1 0x40 MLOAD PUSH1 0x60 DUP2 ADD PUSH8 0xFFFFFFFFFFFFFFFF DUP2 GT DUP3 DUP3 LT OR ISZERO PUSH2 0xFA2 JUMPI PUSH2 0xFA2 PUSH2 0xF69 JUMP JUMPDEST PUSH1 0x40 MSTORE SWAP1 JUMP JUMPDEST PUSH1 0x40 MLOAD PUSH1 0x1F DUP3 ADD PUSH1 0x1F NOT AND DUP2 ADD PUSH8 0xFFFFFFFFFFFFFFFF DUP2 GT DUP3 DUP3 LT OR ISZERO PUSH2 0xFD1 JUMPI PUSH2 0xFD1 PUSH2 0xF69 JUMP JUMPDEST PUSH1 0x40 MSTORE SWAP2 SWAP1 POP JUMP JUMPDEST DUP1 CALLDATALOAD PUSH6 0xFFFFFFFFFFFF DUP2 AND DUP2 EQ PUSH2 0xF64 JUMPI PUSH1 0x0 DUP1 REVERT JUMPDEST PUSH1 0x0 PUSH1 0x80 DUP3 DUP5 SUB SLT ISZERO PUSH2 0x1001 JUMPI PUSH1 0x0 DUP1 REVERT JUMPDEST PUSH1 0x40 MLOAD PUSH1 0x80 DUP2 ADD DUP2 DUP2 LT PUSH8 0xFFFFFFFFFFFFFFFF DUP3 GT OR ISZERO PUSH2 0x1024 JUMPI PUSH2 0x1024 PUSH2 0xF69 JUMP JUMPDEST PUSH1 0x40 MSTORE SWAP1 POP DUP1 DUP3 CALLDATALOAD PUSH2 0x1035 DUP2 PUSH2 0xF41 JUMP JUMPDEST DUP2 MSTORE PUSH1 0x20 DUP4 ADD CALLDATALOAD PUSH2 0x1045 DUP2 PUSH2 0xF41 JUMP JUMPDEST PUSH1 0x20 DUP3 ADD MSTORE PUSH2 0x1056 PUSH1 0x40 DUP5 ADD PUSH2 0xFD9 JUMP JUMPDEST PUSH1 0x40 DUP3 ADD MSTORE PUSH2 0x1067 PUSH1 0x60 DUP5 ADD PUSH2 0xFD9 JUMP JUMPDEST PUSH1 0x60 DUP3 ADD MSTORE POP SWAP3 SWAP2 POP POP JUMP JUMPDEST PUSH1 0x0 DUP1 DUP4 PUSH1 0x1F DUP5 ADD SLT PUSH2 0x1085 JUMPI PUSH1 0x0 DUP1 REVERT JUMPDEST POP DUP2 CALLDATALOAD PUSH8 0xFFFFFFFFFFFFFFFF DUP2 GT ISZERO PUSH2 0x109D JUMPI PUSH1 0x0 DUP1 REVERT JUMPDEST PUSH1 0x20 DUP4 ADD SWAP2 POP DUP4 PUSH1 0x20 DUP3 DUP6 ADD ADD GT ISZERO PUSH2 0x10B5 JUMPI PUSH1 0x0 DUP1 REVERT JUMPDEST SWAP3 POP SWAP3 SWAP1 POP JUMP JUMPDEST PUSH1 0x0 DUP1 PUSH1 0x0 DUP1 PUSH1 0x60 DUP6 DUP8 SUB SLT ISZERO PUSH2 0x10D2 JUMPI PUSH1 0x0 DUP1 REVERT JUMPDEST DUP5 CALLDATALOAD PUSH2 0x10DD DUP2 PUSH2 0xF41 JUMP JUMPDEST SWAP4 POP PUSH1 0x20 DUP6 DUP2 ADD CALLDATALOAD PUSH8 0xFFFFFFFFFFFFFFFF DUP1 DUP3 GT ISZERO PUSH2 0x10FB JUMPI PUSH1 0x0 DUP1 REVERT JUMPDEST SWAP1 DUP8 ADD SWAP1 PUSH1 0x60 DUP3 DUP11 SUB SLT ISZERO PUSH2 0x110F JUMPI PUSH1 0x0 DUP1 REVERT JUMPDEST PUSH2 0x1117 PUSH2 0xF7F JUMP JUMPDEST DUP3 CALLDATALOAD DUP3 DUP2 GT ISZERO PUSH2 0x1126 JUMPI PUSH1 0x0 DUP1 REVERT JUMPDEST DUP4 ADD PUSH1 0x1F DUP2 ADD DUP12 SGT PUSH2 0x1137 JUMPI PUSH1 0x0 DUP1 REVERT JUMPDEST DUP1 CALLDATALOAD DUP4 DUP2 GT ISZERO PUSH2 0x1149 JUMPI PUSH2 0x1149 PUSH2 0xF69 JUMP JUMPDEST PUSH2 0x1157 DUP7 DUP3 PUSH1 0x5 SHL ADD PUSH2 0xFA8 JUMP JUMPDEST DUP2 DUP2 MSTORE PUSH1 0x7 SWAP2 SWAP1 SWAP2 SHL DUP3 ADD DUP7 ADD SWAP1 DUP7 DUP2 ADD SWAP1 DUP14 DUP4 GT ISZERO PUSH2 0x1176 JUMPI PUSH1 0x0 DUP1 REVERT JUMPDEST SWAP3 DUP8 ADD SWAP3 JUMPDEST DUP3 DUP5 LT ISZERO PUSH2 0x119F JUMPI PUSH2 0x118D DUP15 DUP6 PUSH2 0xFEF JUMP JUMPDEST DUP3 MSTORE DUP8 DUP3 ADD SWAP2 POP PUSH1 0x80 DUP5 ADD SWAP4 POP PUSH2 0x117B JUMP JUMPDEST DUP5 MSTORE POP PUSH2 0x11B0 SWAP2 POP POP DUP4 DUP6 ADD PUSH2 0xF59 JUMP JUMPDEST DUP5 DUP3 ADD MSTORE PUSH1 0x40 DUP4 ADD CALLDATALOAD PUSH1 0x40 DUP3 ADD MSTORE DUP1 SWAP7 POP POP PUSH1 0x40 DUP9 ADD CALLDATALOAD SWAP3 POP DUP1 DUP4 GT ISZERO PUSH2 0x11D6 JUMPI PUSH1 0x0 DUP1 REVERT JUMPDEST POP POP PUSH2 0x11E4 DUP8 DUP3 DUP9 ADD PUSH2 0x1073 JUMP JUMPDEST SWAP6 SWAP9 SWAP5 SWAP8 POP SWAP6 POP POP POP POP JUMP JUMPDEST PUSH1 0x0 DUP1 PUSH1 0x0 DUP1 DUP5 DUP7 SUB PUSH2 0x100 DUP2 SLT ISZERO PUSH2 0x1208 JUMPI PUSH1 0x0 DUP1 REVERT JUMPDEST DUP6 CALLDATALOAD PUSH2 0x1213 DUP2 PUSH2 0xF41 JUMP JUMPDEST SWAP5 POP PUSH1 0xC0 PUSH1 0x1F NOT DUP3 ADD SLT ISZERO PUSH2 0x1227 JUMPI PUSH1 0x0 DUP1 REVERT JUMPDEST POP PUSH1 0x40 MLOAD PUSH1 0x60 DUP2 ADD PUSH8 0xFFFFFFFFFFFFFFFF DUP3 DUP3 LT DUP2 DUP4 GT OR ISZERO PUSH2 0x124C JUMPI PUSH2 0x124C PUSH2 0xF69 JUMP JUMPDEST DUP2 PUSH1 0x40 MSTORE PUSH2 0x125D DUP10 PUSH1 0x20 DUP11 ADD PUSH2 0xFEF JUMP JUMPDEST DUP4 MSTORE PUSH1 0xA0 DUP9 ADD CALLDATALOAD SWAP2 POP PUSH2 0x126F DUP3 PUSH2 0xF41 JUMP JUMPDEST DUP2 PUSH1 0x20 DUP5 ADD MSTORE PUSH1 0xC0 DUP9 ADD CALLDATALOAD PUSH1 0x40 DUP5 ADD MSTORE DUP3 SWAP6 POP PUSH1 0xE0 DUP9 ADD CALLDATALOAD SWAP3 POP DUP1 DUP4 GT ISZERO PUSH2 0x11D6 JUMPI PUSH1 0x0 DUP1 REVERT JUMPDEST PUSH1 0x0 DUP1 PUSH1 0x0 DUP1 PUSH1 0x80 DUP6 DUP8 SUB SLT ISZERO PUSH2 0x12AC JUMPI PUSH1 0x0 DUP1 REVERT JUMPDEST DUP5 CALLDATALOAD PUSH2 0x12B7 DUP2 PUSH2 0xF41 JUMP JUMPDEST SWAP4 POP PUSH1 0x20 DUP6 ADD CALLDATALOAD PUSH2 0x12C7 DUP2 PUSH2 0xF41 JUMP JUMPDEST SWAP3 POP PUSH1 0x40 DUP6 ADD CALLDATALOAD PUSH2 0x12D7 DUP2 PUSH2 0xF41 JUMP JUMPDEST SWAP2 POP PUSH1 0x60 DUP6 ADD CALLDATALOAD PUSH2 0x12E7 DUP2 PUSH2 0xF41 JUMP JUMPDEST SWAP4 SWAP7 SWAP3 SWAP6 POP SWAP1 SWAP4 POP POP JUMP JUMPDEST PUSH1 0x0 DUP1 PUSH1 0x0 PUSH1 0x60 DUP5 DUP7 SUB SLT ISZERO PUSH2 0x1307 JUMPI PUSH1 0x0 DUP1 REVERT JUMPDEST DUP4 CALLDATALOAD PUSH2 0x1312 DUP2 PUSH2 0xF41 JUMP JUMPDEST SWAP3 POP PUSH1 0x20 DUP5 ADD CALLDATALOAD PUSH2 0x1322 DUP2 PUSH2 0xF41 JUMP JUMPDEST SWAP2 POP PUSH2 0x1330 PUSH1 0x40 DUP6 ADD PUSH2 0xFD9 JUMP JUMPDEST SWAP1 POP SWAP3 POP SWAP3 POP SWAP3 JUMP JUMPDEST PUSH1 0x0 DUP1 PUSH1 0x0 DUP1 PUSH1 0x80 DUP6 DUP8 SUB SLT ISZERO PUSH2 0x134F JUMPI PUSH1 0x0 DUP1 REVERT JUMPDEST DUP5 CALLDATALOAD PUSH2 0x135A DUP2 PUSH2 0xF41 JUMP JUMPDEST SWAP4 POP PUSH1 0x20 DUP6 ADD CALLDATALOAD PUSH2 0x136A DUP2 PUSH2 0xF41 JUMP JUMPDEST SWAP3 POP PUSH1 0x40 DUP6 ADD CALLDATALOAD PUSH2 0x137A DUP2 PUSH2 0xF41 JUMP JUMPDEST SWAP2 POP PUSH2 0x1388 PUSH1 0x60 DUP7 ADD PUSH2 0xFD9 JUMP JUMPDEST SWAP1 POP SWAP3 SWAP6 SWAP2 SWAP5 POP SWAP3 POP JUMP JUMPDEST PUSH1 0x0 DUP1 PUSH1 0x0 PUSH1 0x60 DUP5 DUP7 SUB SLT ISZERO PUSH2 0x13A8 JUMPI PUSH1 0x0 DUP1 REVERT JUMPDEST DUP4 CALLDATALOAD PUSH2 0x13B3 DUP2 PUSH2 0xF41 JUMP JUMPDEST SWAP3 POP PUSH1 0x20 DUP5 ADD CALLDATALOAD PUSH2 0x13C3 DUP2 PUSH2 0xF41 JUMP JUMPDEST SWAP2 POP PUSH1 0x40 DUP5 ADD CALLDATALOAD PUSH2 0x13D3 DUP2 PUSH2 0xF41 JUMP JUMPDEST DUP1 SWAP2 POP POP SWAP3 POP SWAP3 POP SWAP3 JUMP JUMPDEST PUSH1 0x0 DUP1 PUSH1 0x20 DUP4 DUP6 SUB SLT ISZERO PUSH2 0x13F1 JUMPI PUSH1 0x0 DUP1 REVERT JUMPDEST DUP3 CALLDATALOAD PUSH8 0xFFFFFFFFFFFFFFFF DUP1 DUP3 GT ISZERO PUSH2 0x1409 JUMPI PUSH1 0x0 DUP1 REVERT JUMPDEST DUP2 DUP6 ADD SWAP2 POP DUP6 PUSH1 0x1F DUP4 ADD SLT PUSH2 0x141D JUMPI PUSH1 0x0 DUP1 REVERT JUMPDEST DUP2 CALLDATALOAD DUP2 DUP2 GT ISZERO PUSH2 0x142C JUMPI PUSH1 0x0 DUP1 REVERT JUMPDEST DUP7 PUSH1 0x20 DUP3 PUSH1 0x6 SHL DUP6 ADD ADD GT ISZERO PUSH2 0xF2F JUMPI PUSH1 0x0 DUP1 REVERT JUMPDEST PUSH4 0x4E487B71 PUSH1 0xE0 SHL PUSH1 0x0 MSTORE PUSH1 0x32 PUSH1 0x4 MSTORE PUSH1 0x24 PUSH1 0x0 REVERT JUMPDEST PUSH1 0x0 PUSH1 0x80 DUP3 DUP5 SUB SLT ISZERO PUSH2 0x1469 JUMPI PUSH1 0x0 DUP1 REVERT JUMPDEST PUSH1 0x40 MLOAD PUSH1 0x80 DUP2 ADD DUP2 DUP2 LT PUSH8 0xFFFFFFFFFFFFFFFF DUP3 GT OR ISZERO PUSH2 0x148C JUMPI PUSH2 0x148C PUSH2 0xF69 JUMP JUMPDEST PUSH1 0x40 MSTORE DUP3 CALLDATALOAD PUSH2 0x149A DUP2 PUSH2 0xF41 JUMP JUMPDEST DUP2 MSTORE PUSH1 0x20 DUP4 ADD CALLDATALOAD PUSH2 0x14AA DUP2 PUSH2 0xF41 JUMP JUMPDEST PUSH1 0x20 DUP3 ADD MSTORE PUSH1 0x40 DUP4 ADD CALLDATALOAD PUSH2 0x14BD DUP2 PUSH2 0xF41 JUMP JUMPDEST PUSH1 0x40 DUP3 ADD MSTORE PUSH1 0x60 DUP4 ADD CALLDATALOAD PUSH2 0x14D0 DUP2 PUSH2 0xF41 JUMP JUMPDEST PUSH1 0x60 DUP3 ADD MSTORE SWAP4 SWAP3 POP POP POP JUMP JUMPDEST PUSH1 0x0 PUSH1 0x20 DUP3 DUP5 SUB SLT ISZERO PUSH2 0x14EE JUMPI PUSH1 0x0 DUP1 REVERT JUMPDEST DUP2 CALLDATALOAD PUSH2 0x14F9 DUP2 PUSH2 0xF41 JUMP JUMPDEST SWAP4 SWAP3 POP POP POP JUMP JUMPDEST PUSH4 0x4E487B71 PUSH1 0xE0 SHL PUSH1 0x0 MSTORE PUSH1 0x11 PUSH1 0x4 MSTORE PUSH1 0x24 PUSH1 0x0 REVERT JUMPDEST PUSH1 0x0 PUSH1 0x1 DUP3 ADD PUSH2 0x1528 JUMPI PUSH2 0x1528 PUSH2 0x1500 JUMP JUMPDEST POP PUSH1 0x1 ADD SWAP1 JUMP JUMPDEST DUP2 MLOAD PUSH1 0x0 SWAP1 DUP3 SWAP1 PUSH1 0x20 DUP1 DUP7 ADD DUP5 JUMPDEST DUP4 DUP2 LT ISZERO PUSH2 0x1559 JUMPI DUP2 MLOAD DUP6 MSTORE SWAP4 DUP3 ADD SWAP4 SWAP1 DUP3 ADD SWAP1 PUSH1 0x1 ADD PUSH2 0x153D JUMP JUMPDEST POP SWAP3 SWAP7 SWAP6 POP POP POP POP POP POP JUMP JUMPDEST PUSH1 0x0 DUP1 PUSH1 0x40 DUP4 DUP6 SUB SLT ISZERO PUSH2 0x1578 JUMPI PUSH1 0x0 DUP1 REVERT JUMPDEST POP POP DUP1 CALLDATALOAD SWAP3 PUSH1 0x20 SWAP1 SWAP2 ADD CALLDATALOAD SWAP2 POP JUMP JUMPDEST PUSH1 0xFF DUP2 DUP2 AND DUP4 DUP3 AND ADD SWAP1 DUP2 GT ISZERO PUSH2 0xD04 JUMPI PUSH2 0xD04 PUSH2 0x1500 JUMP JUMPDEST DUP4 DUP2 MSTORE PUSH1 0x40 PUSH1 0x20 DUP3 ADD MSTORE DUP2 PUSH1 0x40 DUP3 ADD MSTORE DUP2 DUP4 PUSH1 0x60 DUP4 ADD CALLDATACOPY PUSH1 0x0 DUP2 DUP4 ADD PUSH1 0x60 SWAP1 DUP2 ADD SWAP2 SWAP1 SWAP2 MSTORE PUSH1 0x1F SWAP1 SWAP3 ADD PUSH1 0x1F NOT AND ADD ADD SWAP3 SWAP2 POP POP JUMP JUMPDEST PUSH1 0x0 PUSH1 0x20 DUP3 DUP5 SUB SLT ISZERO PUSH2 0x15E8 JUMPI PUSH1 0x0 DUP1 REVERT JUMPDEST DUP2 MLOAD PUSH1 0x1 PUSH1 0x1 PUSH1 0xE0 SHL SUB NOT DUP2 AND DUP2 EQ PUSH2 0x14F9 JUMPI PUSH1 0x0 DUP1 REVERT INVALID LOG2 PUSH5 0x6970667358 0x22 SLT KECCAK256 0xB7 SWAP16 SWAP12 PUSH27 0x1EC1884595C775EFB62373B825ED48E7C843E67DA33E63563824DE PUSH15 0x64736F6C6343000811003300000000 "
		},
		"gasEstimates": {
			"creation": {
				"codeDepositCost": "1137200",
				"executionCost": "infinite",
				"totalCost": "infinite"
			},
			"external": {
				"DOMAIN_SEPARATOR()": "infinite",
				"allowance(address,address,address)": "infinite",
				"approve(address,address,uint160,uint48)": "infinite",
				"invalidateNonces(address,address,uint48)": "infinite",
				"lockdown((address,address)[])": "infinite",
				"permit(address,((address,uint160,uint48,uint48),address,uint256),bytes)": "infinite",
				"permit(address,((address,uint160,uint48,uint48)[],address,uint256),bytes)": "infinite",
				"transferFrom((address,address,uint160,address)[])": "infinite",
				"transferFrom(address,address,uint160,address)": "infinite"
			},
			"internal": {
				"_transfer(address,address,uint160,address)": "infinite",
				"_updateApproval(struct IAllowanceTransfer.PermitDetails memory,address,address)": "infinite"
			}
		},
		"methodIdentifiers": {
			"DOMAIN_SEPARATOR()": "3644e515",
			"allowance(address,address,address)": "927da105",
			"approve(address,address,uint160,uint48)": "87517c45",
			"invalidateNonces(address,address,uint48)": "65d9723c",
			"lockdown((address,address)[])": "cc53287f",
			"permit(address,((address,uint160,uint48,uint48),address,uint256),bytes)": "2b67b570",
			"permit(address,((address,uint160,uint48,uint48)[],address,uint256),bytes)": "2a2d80d1",
			"transferFrom((address,address,uint160,address)[])": "0d58b1db",
			"transferFrom(address,address,uint160,address)": "36c78516"
		}
	},
	"abi": [
		{
			"inputs": [
				{
					"internalType": "uint256",
					"name": "deadline",
					"type": "uint256"
				}
			],
			"name": "AllowanceExpired",
			"type": "error"
		},
		{
			"inputs": [],
			"name": "ExcessiveInvalidation",
			"type": "error"
		},
		{
			"inputs": [
				{
					"internalType": "uint256",
					"name": "amount",
					"type": "uint256"
				}
			],
			"name": "InsufficientAllowance",
			"type": "error"
		},
		{
			"inputs": [],
			"name": "InvalidContractSignature",
			"type": "error"
		},
		{
			"inputs": [],
			"name": "InvalidNonce",
			"type": "error"
		},
		{
			"inputs": [],
			"name": "InvalidSignature",
			"type": "error"
		},
		{
			"inputs": [],
			"name": "InvalidSignatureLength",
			"type": "error"
		},
		{
			"inputs": [],
			"name": "InvalidSigner",
			"type": "error"
		},
		{
			"inputs": [
				{
					"internalType": "uint256",
					"name": "signatureDeadline",
					"type": "uint256"
				}
			],
			"name": "SignatureExpired",
			"type": "error"
		},
		{
			"anonymous": false,
			"inputs": [
				{
					"indexed": true,
					"internalType": "address",
					"name": "owner",
					"type": "address"
				},
				{
					"indexed": true,
					"internalType": "address",
					"name": "token",
					"type": "address"
				},
				{
					"indexed": true,
					"internalType": "address",
					"name": "spender",
					"type": "address"
				},
				{
					"indexed": false,
					"internalType": "uint160",
					"name": "amount",
					"type": "uint160"
				},
				{
					"indexed": false,
					"internalType": "uint48",
					"name": "expiration",
					"type": "uint48"
				}
			],
			"name": "Approval",
			"type": "event"
		},
		{
			"anonymous": false,
			"inputs": [
				{
					"indexed": true,
					"internalType": "address",
					"name": "owner",
					"type": "address"
				},
				{
					"indexed": false,
					"internalType": "address",
					"name": "token",
					"type": "address"
				},
				{
					"indexed": false,
					"internalType": "address",
					"name": "spender",
					"type": "address"
				}
			],
			"name": "Lockdown",
			"type": "event"
		},
		{
			"anonymous": false,
			"inputs": [
				{
					"indexed": true,
					"internalType": "address",
					"name": "owner",
					"type": "address"
				},
				{
					"indexed": true,
					"internalType": "address",
					"name": "token",
					"type": "address"
				},
				{
					"indexed": true,
					"internalType": "address",
					"name": "spender",
					"type": "address"
				},
				{
					"indexed": false,
					"internalType": "uint48",
					"name": "newNonce",
					"type": "uint48"
				},
				{
					"indexed": false,
					"internalType": "uint48",
					"name": "oldNonce",
					"type": "uint48"
				}
			],
			"name": "NonceInvalidation",
			"type": "event"
		},
		{
			"anonymous": false,
			"inputs": [
				{
					"indexed": true,
					"internalType": "address",
					"name": "owner",
					"type": "address"
				},
				{
					"indexed": true,
					"internalType": "address",
					"name": "token",
					"type": "address"
				},
				{
					"indexed": true,
					"internalType": "address",
					"name": "spender",
					"type": "address"
				},
				{
					"indexed": false,
					"internalType": "uint160",
					"name": "amount",
					"type": "uint160"
				},
				{
					"indexed": false,
					"internalType": "uint48",
					"name": "expiration",
					"type": "uint48"
				},
				{
					"indexed": false,
					"internalType": "uint48",
					"name": "nonce",
					"type": "uint48"
				}
			],
			"name": "Permit",
			"type": "event"
		},
		{
			"inputs": [],
			"name": "DOMAIN_SEPARATOR",
			"outputs": [
				{
					"internalType": "bytes32",
					"name": "",
					"type": "bytes32"
				}
			],
			"stateMutability": "view",
			"type": "function"
		},
		{
			"inputs": [
				{
					"internalType": "address",
					"name": "",
					"type": "address"
				},
				{
					"internalType": "address",
					"name": "",
					"type": "address"
				},
				{
					"internalType": "address",
					"name": "",
					"type": "address"
				}
			],
			"name": "allowance",
			"outputs": [
				{
					"internalType": "uint160",
					"name": "amount",
					"type": "uint160"
				},
				{
					"internalType": "uint48",
					"name": "expiration",
					"type": "uint48"
				},
				{
					"internalType": "uint48",
					"name": "nonce",
					"type": "uint48"
				}
			],
			"stateMutability": "view",
			"type": "function"
		},
		{
			"inputs": [
				{
					"internalType": "address",
					"name": "token",
					"type": "address"
				},
				{
					"internalType": "address",
					"name": "spender",
					"type": "address"
				},
				{
					"internalType": "uint160",
					"name": "amount",
					"type": "uint160"
				},
				{
					"internalType": "uint48",
					"name": "expiration",
					"type": "uint48"
				}
			],
			"name": "approve",
			"outputs": [],
			"stateMutability": "nonpayable",
			"type": "function"
		},
		{
			"inputs": [
				{
					"internalType": "address",
					"name": "token",
					"type": "address"
				},
				{
					"internalType": "address",
					"name": "spender",
					"type": "address"
				},
				{
					"internalType": "uint48",
					"name": "newNonce",
					"type": "uint48"
				}
			],
			"name": "invalidateNonces",
			"outputs": [],
			"stateMutability": "nonpayable",
			"type": "function"
		},
		{
			"inputs": [
				{
					"components": [
						{
							"internalType": "address",
							"name": "token",
							"type": "address"
						},
						{
							"internalType": "address",
							"name": "spender",
							"type": "address"
						}
					],
					"internalType": "struct IAllowanceTransfer.TokenSpenderPair[]",
					"name": "approvals",
					"type": "tuple[]"
				}
			],
			"name": "lockdown",
			"outputs": [],
			"stateMutability": "nonpayable",
			"type": "function"
		},
		{
			"inputs": [
				{
					"internalType": "address",
					"name": "owner",
					"type": "address"
				},
				{
					"components": [
						{
							"components": [
								{
									"internalType": "address",
									"name": "token",
									"type": "address"
								},
								{
									"internalType": "uint160",
									"name": "amount",
									"type": "uint160"
								},
								{
									"internalType": "uint48",
									"name": "expiration",
									"type": "uint48"
								},
								{
									"internalType": "uint48",
									"name": "nonce",
									"type": "uint48"
								}
							],
							"internalType": "struct IAllowanceTransfer.PermitDetails[]",
							"name": "details",
							"type": "tuple[]"
						},
						{
							"internalType": "address",
							"name": "spender",
							"type": "address"
						},
						{
							"internalType": "uint256",
							"name": "sigDeadline",
							"type": "uint256"
						}
					],
					"internalType": "struct IAllowanceTransfer.PermitBatch",
					"name": "permitBatch",
					"type": "tuple"
				},
				{
					"internalType": "bytes",
					"name": "signature",
					"type": "bytes"
				}
			],
			"name": "permit",
			"outputs": [],
			"stateMutability": "nonpayable",
			"type": "function"
		},
		{
			"inputs": [
				{
					"internalType": "address",
					"name": "owner",
					"type": "address"
				},
				{
					"components": [
						{
							"components": [
								{
									"internalType": "address",
									"name": "token",
									"type": "address"
								},
								{
									"internalType": "uint160",
									"name": "amount",
									"type": "uint160"
								},
								{
									"internalType": "uint48",
									"name": "expiration",
									"type": "uint48"
								},
								{
									"internalType": "uint48",
									"name": "nonce",
									"type": "uint48"
								}
							],
							"internalType": "struct IAllowanceTransfer.PermitDetails",
							"name": "details",
							"type": "tuple"
						},
						{
							"internalType": "address",
							"name": "spender",
							"type": "address"
						},
						{
							"internalType": "uint256",
							"name": "sigDeadline",
							"type": "uint256"
						}
					],
					"internalType": "struct IAllowanceTransfer.PermitSingle",
					"name": "permitSingle",
					"type": "tuple"
				},
				{
					"internalType": "bytes",
					"name": "signature",
					"type": "bytes"
				}
			],
			"name": "permit",
			"outputs": [],
			"stateMutability": "nonpayable",
			"type": "function"
		},
		{
			"inputs": [
				{
					"components": [
						{
							"internalType": "address",
							"name": "from",
							"type": "address"
						},
						{
							"internalType": "address",
							"name": "to",
							"type": "address"
						},
						{
							"internalType": "uint160",
							"name": "amount",
							"type": "uint160"
						},
						{
							"internalType": "address",
							"name": "token",
							"type": "address"
						}
					],
					"internalType": "struct IAllowanceTransfer.AllowanceTransferDetails[]",
					"name": "transferDetails",
					"type": "tuple[]"
				}
			],
			"name": "transferFrom",
			"outputs": [],
			"stateMutability": "nonpayable",
			"type": "function"
		},
		{
			"inputs": [
				{
					"internalType": "address",
					"name": "from",
					"type": "address"
				},
				{
					"internalType": "address",
					"name": "to",
					"type": "address"
				},
				{
					"internalType": "uint160",
					"name": "amount",
					"type": "uint160"
				},
				{
					"internalType": "address",
					"name": "token",
					"type": "address"
				}
			],
			"name": "transferFrom",
			"outputs": [],
			"stateMutability": "nonpayable",
			"type": "function"
		}
	]
}